{
  "contractName": "CryptoMarket",
  "abi": [
    {
      "inputs": [],
      "name": "cryptomarket",
      "outputs": [],
      "stateMutability": "nonpayable",
      "type": "function"
    },
    {
      "inputs": [],
      "name": "checkUserRegistration",
      "outputs": [
        {
          "internalType": "bool",
          "name": "",
          "type": "bool"
        }
      ],
      "stateMutability": "view",
      "type": "function"
    },
    {
      "inputs": [],
      "name": "registerUser",
      "outputs": [],
      "stateMutability": "nonpayable",
      "type": "function"
    },
    {
      "inputs": [
        {
          "internalType": "string",
          "name": "item",
          "type": "string"
        },
        {
          "internalType": "string",
          "name": "txn_hash",
          "type": "string"
        }
      ],
      "name": "buyItem",
      "outputs": [
        {
          "internalType": "bool",
          "name": "",
          "type": "bool"
        }
      ],
      "stateMutability": "payable",
      "type": "function"
    },
    {
      "inputs": [],
      "name": "getContractProperties",
      "outputs": [
        {
          "internalType": "address",
          "name": "",
          "type": "address"
        },
        {
          "internalType": "address[]",
          "name": "",
          "type": "address[]"
        }
      ],
      "stateMutability": "view",
      "type": "function"
    }
  ],
  "bytecode": "0x608060405234801561001057600080fd5b50610bbf806100206000396000f3fe60806040526004361061004a5760003560e01c8063013150311461004f5780634d3820eb146100665780636252194d1461007d5780636e9a215e146100a8578063b4496f1a146100d4575b600080fd5b34801561005b57600080fd5b50610064610104565b005b34801561007257600080fd5b5061007b61014a565b005b34801561008957600080fd5b5061009261025a565b60405161009f919061043b565b60405180910390f35b3480156100b457600080fd5b506100bd6102ad565b6040516100cb929190610555565b60405180910390f35b6100ee60048036038101906100e9919061073f565b61036c565b6040516100fb919061043b565b60405180910390f35b33600360000160006101000a81548173ffffffffffffffffffffffffffffffffffffffff021916908373ffffffffffffffffffffffffffffffffffffffff160217905550565b6000803373ffffffffffffffffffffffffffffffffffffffff1673ffffffffffffffffffffffffffffffffffffffff16815260200190815260200160002060009054906101000a900460ff166102585760016000803373ffffffffffffffffffffffffffffffffffffffff1673ffffffffffffffffffffffffffffffffffffffff16815260200190815260200160002060006101000a81548160ff0219169083151502179055506003600101339080600181540180825580915050600190039060005260206000200160009091909190916101000a81548173ffffffffffffffffffffffffffffffffffffffff021916908373ffffffffffffffffffffffffffffffffffffffff1602179055505b565b60008060003373ffffffffffffffffffffffffffffffffffffffff1673ffffffffffffffffffffffffffffffffffffffff16815260200190815260200160002060009054906101000a900460ff16905090565b60006060600360000160009054906101000a900473ffffffffffffffffffffffffffffffffffffffff1660036001018080548060200260200160405190810160405280929190818152602001828054801561035d57602002820191906000526020600020905b8160009054906101000a900473ffffffffffffffffffffffffffffffffffffffff1673ffffffffffffffffffffffffffffffffffffffff1681526020019060010190808311610313575b50505050509050915091509091565b60008033905084600160008373ffffffffffffffffffffffffffffffffffffffff1673ffffffffffffffffffffffffffffffffffffffff16815260200190815260200160002090816103be91906109dc565b508383600260008473ffffffffffffffffffffffffffffffffffffffff1673ffffffffffffffffffffffffffffffffffffffff168152602001908152602001600020918261040d929190610ab9565b5060006001905080925050509392505050565b60008115159050919050565b61043581610420565b82525050565b6000602082019050610450600083018461042c565b92915050565b600073ffffffffffffffffffffffffffffffffffffffff82169050919050565b600061048182610456565b9050919050565b61049181610476565b82525050565b600081519050919050565b600082825260208201905092915050565b6000819050602082019050919050565b6104cc81610476565b82525050565b60006104de83836104c3565b60208301905092915050565b6000602082019050919050565b600061050282610497565b61050c81856104a2565b9350610517836104b3565b8060005b8381101561054857815161052f88826104d2565b975061053a836104ea565b92505060018101905061051b565b5085935050505092915050565b600060408201905061056a6000830185610488565b818103602083015261057c81846104f7565b90509392505050565b6000604051905090565b600080fd5b600080fd5b600080fd5b600080fd5b6000601f19601f8301169050919050565b7f4e487b7100000000000000000000000000000000000000000000000000000000600052604160045260246000fd5b6105ec826105a3565b810181811067ffffffffffffffff8211171561060b5761060a6105b4565b5b80604052505050565b600061061e610585565b905061062a82826105e3565b919050565b600067ffffffffffffffff82111561064a576106496105b4565b5b610653826105a3565b9050602081019050919050565b82818337600083830152505050565b600061068261067d8461062f565b610614565b90508281526020810184848401111561069e5761069d61059e565b5b6106a9848285610660565b509392505050565b600082601f8301126106c6576106c5610599565b5b81356106d684826020860161066f565b91505092915050565b600080fd5b600080fd5b60008083601f8401126106ff576106fe610599565b5b8235905067ffffffffffffffff81111561071c5761071b6106df565b5b602083019150836001820283011115610738576107376106e4565b5b9250929050565b6000806000604084860312156107585761075761058f565b5b600084013567ffffffffffffffff81111561077657610775610594565b5b610782868287016106b1565b935050602084013567ffffffffffffffff8111156107a3576107a2610594565b5b6107af868287016106e9565b92509250509250925092565b600081519050919050565b7f4e487b7100000000000000000000000000000000000000000000000000000000600052602260045260246000fd5b6000600282049050600182168061080d57607f821691505b6020821081036108205761081f6107c6565b5b50919050565b60008190508160005260206000209050919050565b60006020601f8301049050919050565b600082821b905092915050565b6000600883026108887fffffffffffffffffffffffffffffffffffffffffffffffffffffffffffffffff8261084b565b610892868361084b565b95508019841693508086168417925050509392505050565b6000819050919050565b6000819050919050565b60006108d96108d46108cf846108aa565b6108b4565b6108aa565b9050919050565b6000819050919050565b6108f3836108be565b6109076108ff826108e0565b848454610858565b825550505050565b600090565b61091c61090f565b6109278184846108ea565b505050565b5b8181101561094b57610940600082610914565b60018101905061092d565b5050565b601f8211156109905761096181610826565b61096a8461083b565b81016020851015610979578190505b61098d6109858561083b565b83018261092c565b50505b505050565b600082821c905092915050565b60006109b360001984600802610995565b1980831691505092915050565b60006109cc83836109a2565b9150826002028217905092915050565b6109e5826107bb565b67ffffffffffffffff8111156109fe576109fd6105b4565b5b610a0882546107f5565b610a1382828561094f565b600060209050601f831160018114610a465760008415610a34578287015190505b610a3e85826109c0565b865550610aa6565b601f198416610a5486610826565b60005b82811015610a7c57848901518255600182019150602085019450602081019050610a57565b86831015610a995784890151610a95601f8916826109a2565b8355505b6001600288020188555050505b505050505050565b600082905092915050565b610ac38383610aae565b67ffffffffffffffff811115610adc57610adb6105b4565b5b610ae682546107f5565b610af182828561094f565b6000601f831160018114610b205760008415610b0e578287013590505b610b1885826109c0565b865550610b80565b601f198416610b2e86610826565b60005b82811015610b5657848901358255600182019150602085019450602081019050610b31565b86831015610b735784890135610b6f601f8916826109a2565b8355505b6001600288020188555050505b5050505050505056fea2646970667358221220c943eefccfc93930066c37d8ef62553dc92b85401e7f77766a5fe05e8ea1ebf564736f6c63430008100033",
  "immutableReferences": {},
  "source": "// SPDX-License-Identifier: MIT\r\n\r\npragma solidity ^0.8.16;\r\n\r\ncontract CryptoMarket{\r\n\r\n    struct ContractProperties{\r\n        address CryptoMarketOwner;\r\n        address[] registeredUserAdderss;\r\n        string[] soldItems;\r\n    }\r\n    \r\n    mapping (address => bool) hasRegistered;\r\n    mapping (address => string) userItem;\r\n    mapping (address => string) txnHash;\r\n   \r\n    ContractProperties contractProperties;\r\n\r\n    function cryptomarket() public{\r\n         \r\n         contractProperties.CryptoMarketOwner = msg.sender;\r\n    }\r\n\r\n    function checkUserRegistration() public view returns(bool){\r\n        return hasRegistered[msg.sender];\r\n    }\r\n\r\n    function registerUser() public {\r\n        if (!hasRegistered[msg.sender]){\r\n            hasRegistered[msg.sender] = true;\r\n            contractProperties.registeredUserAdderss.push(msg.sender);\r\n        }\r\n    }\r\n\r\n    function buyItem(string memory item, string calldata txn_hash ) public payable returns(bool )  {\r\n\r\n        address owner = msg.sender;\r\n        userItem[owner]  = item;\r\n        txnHash[owner] = txn_hash;\r\n        bool sold = true;\r\n        return sold;\r\n\r\n    }\r\n\r\n    function getContractProperties() public view returns(address, address[] memory){\r\n\r\n        return (contractProperties.CryptoMarketOwner, contractProperties.registeredUserAdderss);\r\n    }\r\n\r\n\r\n    \r\n}",
  "sourcePath": "C:\\Users\\dvipa\\OneDrive\\Desktop\\CryptoMarket\\CryptoMarket\\contracts\\CryptoMarket.sol",
  "compiler": {
    "name": "solc",
    "version": "0.8.16+commit.07a7930e.Emscripten.clang"
  },
  "schemaVersion": "3.4.9",
  "updatedAt": "2022-09-02T06:00:38.007Z",
  "devdoc": {
    "kind": "dev",
    "methods": {},
    "version": 1
  },
  "userdoc": {
    "kind": "user",
    "methods": {},
    "version": 1
  }
}