{
  "contractName": "CryptoMarket",
  "abi": [
    {
      "inputs": [],
      "name": "cryptomarket",
      "outputs": [],
      "stateMutability": "nonpayable",
      "type": "function"
    },
    {
      "inputs": [],
      "name": "checkUserRegistration",
      "outputs": [
        {
          "internalType": "bool",
          "name": "",
          "type": "bool"
        }
      ],
      "stateMutability": "view",
      "type": "function",
      "constant": true
    },
    {
      "inputs": [],
      "name": "registerUser",
      "outputs": [],
      "stateMutability": "nonpayable",
      "type": "function"
    },
    {
      "inputs": [
        {
          "internalType": "string[]",
          "name": "item",
          "type": "string[]"
        }
      ],
      "name": "buyitem",
      "outputs": [],
      "stateMutability": "nonpayable",
      "type": "function"
    },
    {
      "inputs": [],
      "name": "getContractProperties",
      "outputs": [
        {
          "internalType": "address",
          "name": "",
          "type": "address"
        },
        {
          "internalType": "address[]",
          "name": "",
          "type": "address[]"
        }
      ],
      "stateMutability": "view",
      "type": "function",
      "constant": true
    }
  ],
  "bytecode": "0x608060405234801561001057600080fd5b50610bd4806100206000396000f3fe608060405234801561001057600080fd5b50600436106100575760003560e01c8063013150311461005c578063145d37d1146100665780634d3820eb146100825780636252194d1461008c5780636e9a215e146100aa575b600080fd5b6100646100c9565b005b610080600480360381019061007b9190610657565b61010f565b005b61008a6101f5565b005b610094610305565b6040516100a191906106bb565b60405180910390f35b6100b2610358565b6040516100c09291906107d5565b60405180910390f35b33600260000160006101000a81548173ffffffffffffffffffffffffffffffffffffffff021916908373ffffffffffffffffffffffffffffffffffffffff160217905550565b600033905060008251905060005b8181116101ef576002800184828151811061013b5761013a610805565b5b60200260200101519080600181540180825580915050600190039060005260206000200160009091909190915090816101749190610a55565b5083818151811061018857610187610805565b5b6020026020010151600160008573ffffffffffffffffffffffffffffffffffffffff1673ffffffffffffffffffffffffffffffffffffffff16815260200190815260200160002090816101db9190610a55565b5080806101e790610b56565b91505061011d565b50505050565b6000803373ffffffffffffffffffffffffffffffffffffffff1673ffffffffffffffffffffffffffffffffffffffff16815260200190815260200160002060009054906101000a900460ff166103035760016000803373ffffffffffffffffffffffffffffffffffffffff1673ffffffffffffffffffffffffffffffffffffffff16815260200190815260200160002060006101000a81548160ff0219169083151502179055506002600101339080600181540180825580915050600190039060005260206000200160009091909190916101000a81548173ffffffffffffffffffffffffffffffffffffffff021916908373ffffffffffffffffffffffffffffffffffffffff1602179055505b565b60008060003373ffffffffffffffffffffffffffffffffffffffff1673ffffffffffffffffffffffffffffffffffffffff16815260200190815260200160002060009054906101000a900460ff16905090565b60006060600260000160009054906101000a900473ffffffffffffffffffffffffffffffffffffffff1660026001018080548060200260200160405190810160405280929190818152602001828054801561040857602002820191906000526020600020905b8160009054906101000a900473ffffffffffffffffffffffffffffffffffffffff1673ffffffffffffffffffffffffffffffffffffffff16815260200190600101908083116103be575b50505050509050915091509091565b6000604051905090565b600080fd5b600080fd5b600080fd5b6000601f19601f8301169050919050565b7f4e487b7100000000000000000000000000000000000000000000000000000000600052604160045260246000fd5b61047982610430565b810181811067ffffffffffffffff8211171561049857610497610441565b5b80604052505050565b60006104ab610417565b90506104b78282610470565b919050565b600067ffffffffffffffff8211156104d7576104d6610441565b5b602082029050602081019050919050565b600080fd5b600080fd5b600067ffffffffffffffff82111561050d5761050c610441565b5b61051682610430565b9050602081019050919050565b82818337600083830152505050565b6000610545610540846104f2565b6104a1565b905082815260208101848484011115610561576105606104ed565b5b61056c848285610523565b509392505050565b600082601f8301126105895761058861042b565b5b8135610599848260208601610532565b91505092915050565b60006105b56105b0846104bc565b6104a1565b905080838252602082019050602084028301858111156105d8576105d76104e8565b5b835b8181101561061f57803567ffffffffffffffff8111156105fd576105fc61042b565b5b80860161060a8982610574565b855260208501945050506020810190506105da565b5050509392505050565b600082601f83011261063e5761063d61042b565b5b813561064e8482602086016105a2565b91505092915050565b60006020828403121561066d5761066c610421565b5b600082013567ffffffffffffffff81111561068b5761068a610426565b5b61069784828501610629565b91505092915050565b60008115159050919050565b6106b5816106a0565b82525050565b60006020820190506106d060008301846106ac565b92915050565b600073ffffffffffffffffffffffffffffffffffffffff82169050919050565b6000610701826106d6565b9050919050565b610711816106f6565b82525050565b600081519050919050565b600082825260208201905092915050565b6000819050602082019050919050565b61074c816106f6565b82525050565b600061075e8383610743565b60208301905092915050565b6000602082019050919050565b600061078282610717565b61078c8185610722565b935061079783610733565b8060005b838110156107c85781516107af8882610752565b97506107ba8361076a565b92505060018101905061079b565b5085935050505092915050565b60006040820190506107ea6000830185610708565b81810360208301526107fc8184610777565b90509392505050565b7f4e487b7100000000000000000000000000000000000000000000000000000000600052603260045260246000fd5b600081519050919050565b7f4e487b7100000000000000000000000000000000000000000000000000000000600052602260045260246000fd5b6000600282049050600182168061088657607f821691505b6020821081036108995761089861083f565b5b50919050565b60008190508160005260206000209050919050565b60006020601f8301049050919050565b600082821b905092915050565b6000600883026109017fffffffffffffffffffffffffffffffffffffffffffffffffffffffffffffffff826108c4565b61090b86836108c4565b95508019841693508086168417925050509392505050565b6000819050919050565b6000819050919050565b600061095261094d61094884610923565b61092d565b610923565b9050919050565b6000819050919050565b61096c83610937565b61098061097882610959565b8484546108d1565b825550505050565b600090565b610995610988565b6109a0818484610963565b505050565b5b818110156109c4576109b960008261098d565b6001810190506109a6565b5050565b601f821115610a09576109da8161089f565b6109e3846108b4565b810160208510156109f2578190505b610a066109fe856108b4565b8301826109a5565b50505b505050565b600082821c905092915050565b6000610a2c60001984600802610a0e565b1980831691505092915050565b6000610a458383610a1b565b9150826002028217905092915050565b610a5e82610834565b67ffffffffffffffff811115610a7757610a76610441565b5b610a81825461086e565b610a8c8282856109c8565b600060209050601f831160018114610abf5760008415610aad578287015190505b610ab78582610a39565b865550610b1f565b601f198416610acd8661089f565b60005b82811015610af557848901518255600182019150602085019450602081019050610ad0565b86831015610b125784890151610b0e601f891682610a1b565b8355505b6001600288020188555050505b505050505050565b7f4e487b7100000000000000000000000000000000000000000000000000000000600052601160045260246000fd5b6000610b6182610923565b91507fffffffffffffffffffffffffffffffffffffffffffffffffffffffffffffffff8203610b9357610b92610b27565b5b60018201905091905056fea2646970667358221220c81cb6d735eae2301b4f78d8cf7d32701c6e0efebd18d61fe526be796d3c474d64736f6c63430008100033",
  "immutableReferences": {},
  "source": "// SPDX-License-Identifier: MIT\r\n\r\npragma solidity ^0.8.16;\r\n\r\ncontract CryptoMarket{\r\n\r\n    struct ContractProperties{\r\n        address CryptoMarketOwner;\r\n        address[] registeredUserAdderss;\r\n        string[] itemsSold;\r\n    }\r\n\r\n    \r\n    \r\n    mapping (address => bool) hasRegistered;\r\n    mapping (address => string) bought;\r\n    \r\n   \r\n    ContractProperties contractProperties;\r\n\r\n    function cryptomarket() public{\r\n         \r\n         contractProperties.CryptoMarketOwner = msg.sender;\r\n    }\r\n\r\n    function checkUserRegistration() public view returns(bool){\r\n        return hasRegistered[msg.sender];\r\n    }\r\n\r\n    function registerUser() public {\r\n        if (!hasRegistered[msg.sender]){\r\n            hasRegistered[msg.sender] = true;\r\n            contractProperties.registeredUserAdderss.push(msg.sender);\r\n        }\r\n    }\r\n\r\n    function buyitem(string[] memory item) public {\r\n        address owner = msg.sender;\r\n        uint arr_len = item.length;\r\n        for(uint i=0; i<=arr_len; i++ ){\r\n            contractProperties.itemsSold.push(item[i]);\r\n            bought[owner] = item[i];\r\n        }\r\n        \r\n        \r\n\r\n    }\r\n    \r\n\r\n    \r\n\r\n    function getContractProperties() public view returns(address, address[] memory){\r\n\r\n        return (contractProperties.CryptoMarketOwner, contractProperties.registeredUserAdderss);\r\n    }\r\n\r\n\r\n    \r\n}",
  "sourcePath": "C:\\Users\\dvipa\\OneDrive\\Desktop\\CryptoMarket\\CryptoMarket\\contracts\\CryptoMarket.sol",
  "compiler": {
    "name": "solc",
    "version": "0.8.16+commit.07a7930e.Emscripten.clang"
  },
  "schemaVersion": "3.4.9",
  "updatedAt": "2022-09-08T13:16:00.224Z",
  "networkType": "ethereum",
  "devdoc": {
    "kind": "dev",
    "methods": {},
    "version": 1
  },
  "userdoc": {
    "kind": "user",
    "methods": {},
    "version": 1
  }
}