{
  "contractName": "CryptoMarket",
  "abi": [
    {
      "inputs": [],
      "name": "cryptomarket",
      "outputs": [],
      "stateMutability": "nonpayable",
      "type": "function"
    },
    {
      "inputs": [],
      "name": "checkUserRegistration",
      "outputs": [
        {
          "internalType": "bool",
          "name": "",
          "type": "bool"
        }
      ],
      "stateMutability": "view",
      "type": "function"
    },
    {
      "inputs": [],
      "name": "registerUser",
      "outputs": [],
      "stateMutability": "nonpayable",
      "type": "function"
    },
    {
      "inputs": [],
      "name": "getContractProperties",
      "outputs": [
        {
          "internalType": "address",
          "name": "",
          "type": "address"
        },
        {
          "internalType": "address[]",
          "name": "",
          "type": "address[]"
        }
      ],
      "stateMutability": "view",
      "type": "function"
    }
  ],
  "bytecode": "0x608060405234801561001057600080fd5b506104a3806100206000396000f3fe608060405234801561001057600080fd5b506004361061004c5760003560e01c806301315031146100515780634d3820eb1461005b5780636252194d146100655780636e9a215e14610083575b600080fd5b6100596100a2565b005b6100636100e8565b005b61006d6101f7565b60405161007a9190610323565b60405180910390f35b61008b61024a565b60405161009992919061043d565b60405180910390f35b33600160000160006101000a81548173ffffffffffffffffffffffffffffffffffffffff021916908373ffffffffffffffffffffffffffffffffffffffff160217905550565b6000803373ffffffffffffffffffffffffffffffffffffffff1673ffffffffffffffffffffffffffffffffffffffff16815260200190815260200160002060009054906101000a900460ff166101f55760016000803373ffffffffffffffffffffffffffffffffffffffff1673ffffffffffffffffffffffffffffffffffffffff16815260200190815260200160002060006101000a81548160ff02191690831515021790555060018001339080600181540180825580915050600190039060005260206000200160009091909190916101000a81548173ffffffffffffffffffffffffffffffffffffffff021916908373ffffffffffffffffffffffffffffffffffffffff1602179055505b565b60008060003373ffffffffffffffffffffffffffffffffffffffff1673ffffffffffffffffffffffffffffffffffffffff16815260200190815260200160002060009054906101000a900460ff16905090565b60006060600160000160009054906101000a900473ffffffffffffffffffffffffffffffffffffffff1660018001808054806020026020016040519081016040528092919081815260200182805480156102f957602002820191906000526020600020905b8160009054906101000a900473ffffffffffffffffffffffffffffffffffffffff1673ffffffffffffffffffffffffffffffffffffffff16815260200190600101908083116102af575b50505050509050915091509091565b60008115159050919050565b61031d81610308565b82525050565b60006020820190506103386000830184610314565b92915050565b600073ffffffffffffffffffffffffffffffffffffffff82169050919050565b60006103698261033e565b9050919050565b6103798161035e565b82525050565b600081519050919050565b600082825260208201905092915050565b6000819050602082019050919050565b6103b48161035e565b82525050565b60006103c683836103ab565b60208301905092915050565b6000602082019050919050565b60006103ea8261037f565b6103f4818561038a565b93506103ff8361039b565b8060005b8381101561043057815161041788826103ba565b9750610422836103d2565b925050600181019050610403565b5085935050505092915050565b60006040820190506104526000830185610370565b818103602083015261046481846103df565b9050939250505056fea264697066735822122016a95e55b74fa205ee1364b978264b22de4b4b9df13c671c7d9c268e0bf4336164736f6c63430008100033",
  "immutableReferences": {},
  "source": "// SPDX-License-Identifier: MIT\r\n\r\npragma solidity ^0.8.16;\r\nimport \"@openzeppelin/contracts/utils/Strings.sol\";\r\n\r\ncontract CryptoMarket{\r\n\r\n    struct ContractProperties{\r\n        address CryptoMarketOwner;\r\n        address[] registeredUserAdderss;\r\n        string[] items;\r\n    }\r\n    \r\n    mapping (address => bool) hasRegistered;\r\n   \r\n    ContractProperties contractProperties;\r\n\r\n    function cryptomarket() public{\r\n         \r\n         contractProperties.CryptoMarketOwner = msg.sender;\r\n    }\r\n\r\n    function checkUserRegistration() public view returns(bool){\r\n        return hasRegistered[msg.sender];\r\n    }\r\n\r\n    function registerUser() public {\r\n        if (!hasRegistered[msg.sender]){\r\n            hasRegistered[msg.sender] = true;\r\n            contractProperties.registeredUserAdderss.push(msg.sender);\r\n        }\r\n    }\r\n\r\n    // function addItem(string memory item ) public  {\r\n    //     string memory Item = item;\r\n    //     string memory length = Strings.toString((bytes(item).length));\r\n    //     address setter = msg.sender;\r\n    //     string memory item_details = string.concat(Item,\",\",length,\",\",setter);\r\n    //     contractProperties.items.push(item_details);\r\n    // }\r\n\r\n    function getContractProperties() public view returns(address, address[] memory){\r\n\r\n        return (contractProperties.CryptoMarketOwner, contractProperties.registeredUserAdderss);\r\n    }\r\n\r\n\r\n    \r\n}",
  "sourcePath": "D:\\BlockChain-Project\\Dapp_Project_2\\contracts\\CryptoMarket.sol",
  "compiler": {
    "name": "solc",
    "version": "0.8.16+commit.07a7930e.Emscripten.clang"
  },
  "schemaVersion": "3.4.9",
  "updatedAt": "2022-08-29T03:54:16.639Z",
  "devdoc": {
    "kind": "dev",
    "methods": {},
    "version": 1
  },
  "userdoc": {
    "kind": "user",
    "methods": {},
    "version": 1
  }
}