{
  "contractName": "CryptoMarket",
  "abi": [
    {
      "inputs": [],
      "name": "cryptomarket",
      "outputs": [],
      "stateMutability": "nonpayable",
      "type": "function"
    },
    {
      "inputs": [],
      "name": "checkUserRegistration",
      "outputs": [
        {
          "internalType": "bool",
          "name": "",
          "type": "bool"
        }
      ],
      "stateMutability": "view",
      "type": "function",
      "constant": true
    },
    {
      "inputs": [],
      "name": "registerUser",
      "outputs": [],
      "stateMutability": "nonpayable",
      "type": "function"
    },
    {
      "inputs": [
        {
          "internalType": "string[2]",
          "name": "item",
          "type": "string[2]"
        }
      ],
      "name": "buyitem",
      "outputs": [],
      "stateMutability": "payable",
      "type": "function",
      "payable": true
    },
    {
      "inputs": [],
      "name": "getUserItems",
      "outputs": [
        {
          "internalType": "string[]",
          "name": "",
          "type": "string[]"
        }
      ],
      "stateMutability": "view",
      "type": "function",
      "constant": true
    },
    {
      "inputs": [],
      "name": "getContractProperties",
      "outputs": [
        {
          "internalType": "address",
          "name": "",
          "type": "address"
        },
        {
          "internalType": "address[]",
          "name": "",
          "type": "address[]"
        }
      ],
      "stateMutability": "view",
      "type": "function",
      "constant": true
    }
  ],
  "bytecode": "0x608060405234801561001057600080fd5b50610e57806100206000396000f3fe6080604052600436106100555760003560e01c8063013150311461005a5780634d3820eb146100715780636252194d146100885780636502096a146100b35780636e9a215e146100de57806374ca8e151461010a575b600080fd5b34801561006657600080fd5b5061006f610126565b005b34801561007d57600080fd5b5061008661016c565b005b34801561009457600080fd5b5061009d61027b565b6040516100aa919061056f565b60405180910390f35b3480156100bf57600080fd5b506100c86102ce565b6040516100d591906106dc565b60405180910390f35b3480156100ea57600080fd5b506100f36103e7565b6040516101019291906107fd565b60405180910390f35b610124600480360381019061011f9190610a4a565b6104a5565b005b33600160000160006101000a81548173ffffffffffffffffffffffffffffffffffffffff021916908373ffffffffffffffffffffffffffffffffffffffff160217905550565b6000803373ffffffffffffffffffffffffffffffffffffffff1673ffffffffffffffffffffffffffffffffffffffff16815260200190815260200160002060009054906101000a900460ff166102795760016000803373ffffffffffffffffffffffffffffffffffffffff1673ffffffffffffffffffffffffffffffffffffffff16815260200190815260200160002060006101000a81548160ff02191690831515021790555060018001339080600181540180825580915050600190039060005260206000200160009091909190916101000a81548173ffffffffffffffffffffffffffffffffffffffff021916908373ffffffffffffffffffffffffffffffffffffffff1602179055505b565b60008060003373ffffffffffffffffffffffffffffffffffffffff1673ffffffffffffffffffffffffffffffffffffffff16815260200190815260200160002060009054906101000a900460ff16905090565b6060600160020160003373ffffffffffffffffffffffffffffffffffffffff1673ffffffffffffffffffffffffffffffffffffffff168152602001908152602001600020805480602002602001604051908101604052809291908181526020016000905b828210156103de57838290600052602060002001805461035190610ac2565b80601f016020809104026020016040519081016040528092919081815260200182805461037d90610ac2565b80156103ca5780601f1061039f576101008083540402835291602001916103ca565b820191906000526020600020905b8154815290600101906020018083116103ad57829003601f168201915b505050505081526020019060010190610332565b50505050905090565b60006060600160000160009054906101000a900473ffffffffffffffffffffffffffffffffffffffff16600180018080548060200260200160405190810160405280929190818152602001828054801561049657602002820191906000526020600020905b8160009054906101000a900473ffffffffffffffffffffffffffffffffffffffff1673ffffffffffffffffffffffffffffffffffffffff168152602001906001019080831161044c575b50505050509050915091509091565b60005b600281101561055057600160020160003373ffffffffffffffffffffffffffffffffffffffff1673ffffffffffffffffffffffffffffffffffffffff16815260200190815260200160002082826002811061050657610505610af3565b5b602002015190806001815401808255809150506001900390600052602060002001600090919091909150908161053c9190610cd8565b50808061054890610dd9565b9150506104a8565b5050565b60008115159050919050565b61056981610554565b82525050565b60006020820190506105846000830184610560565b92915050565b600081519050919050565b600082825260208201905092915050565b6000819050602082019050919050565b600081519050919050565b600082825260208201905092915050565b60005b838110156105f05780820151818401526020810190506105d5565b60008484015250505050565b6000601f19601f8301169050919050565b6000610618826105b6565b61062281856105c1565b93506106328185602086016105d2565b61063b816105fc565b840191505092915050565b6000610652838361060d565b905092915050565b6000602082019050919050565b60006106728261058a565b61067c8185610595565b93508360208202850161068e856105a6565b8060005b858110156106ca57848403895281516106ab8582610646565b94506106b68361065a565b925060208a01995050600181019050610692565b50829750879550505050505092915050565b600060208201905081810360008301526106f68184610667565b905092915050565b600073ffffffffffffffffffffffffffffffffffffffff82169050919050565b6000610729826106fe565b9050919050565b6107398161071e565b82525050565b600081519050919050565b600082825260208201905092915050565b6000819050602082019050919050565b6107748161071e565b82525050565b6000610786838361076b565b60208301905092915050565b6000602082019050919050565b60006107aa8261073f565b6107b4818561074a565b93506107bf8361075b565b8060005b838110156107f05781516107d7888261077a565b97506107e283610792565b9250506001810190506107c3565b5085935050505092915050565b60006040820190506108126000830185610730565b8181036020830152610824818461079f565b90509392505050565b6000604051905090565b600080fd5b600080fd5b600080fd5b7f4e487b7100000000000000000000000000000000000000000000000000000000600052604160045260246000fd5b61087e826105fc565b810181811067ffffffffffffffff8211171561089d5761089c610846565b5b80604052505050565b60006108b061082d565b90506108bc8282610875565b919050565b600067ffffffffffffffff8211156108dc576108db610846565b5b602082029050919050565b600080fd5b600080fd5b600067ffffffffffffffff82111561090c5761090b610846565b5b610915826105fc565b9050602081019050919050565b82818337600083830152505050565b600061094461093f846108f1565b6108a6565b9050828152602081018484840111156109605761095f6108ec565b5b61096b848285610922565b509392505050565b600082601f83011261098857610987610841565b5b8135610998848260208601610931565b91505092915050565b60006109b46109af846108c1565b6108a6565b905080602084028301858111156109ce576109cd6108e7565b5b835b81811015610a1557803567ffffffffffffffff8111156109f3576109f2610841565b5b808601610a008982610973565b855260208501945050506020810190506109d0565b5050509392505050565b600082601f830112610a3457610a33610841565b5b6002610a418482856109a1565b91505092915050565b600060208284031215610a6057610a5f610837565b5b600082013567ffffffffffffffff811115610a7e57610a7d61083c565b5b610a8a84828501610a1f565b91505092915050565b7f4e487b7100000000000000000000000000000000000000000000000000000000600052602260045260246000fd5b60006002820490506001821680610ada57607f821691505b602082108103610aed57610aec610a93565b5b50919050565b7f4e487b7100000000000000000000000000000000000000000000000000000000600052603260045260246000fd5b60008190508160005260206000209050919050565b60006020601f8301049050919050565b600082821b905092915050565b600060088302610b847fffffffffffffffffffffffffffffffffffffffffffffffffffffffffffffffff82610b47565b610b8e8683610b47565b95508019841693508086168417925050509392505050565b6000819050919050565b6000819050919050565b6000610bd5610bd0610bcb84610ba6565b610bb0565b610ba6565b9050919050565b6000819050919050565b610bef83610bba565b610c03610bfb82610bdc565b848454610b54565b825550505050565b600090565b610c18610c0b565b610c23818484610be6565b505050565b5b81811015610c4757610c3c600082610c10565b600181019050610c29565b5050565b601f821115610c8c57610c5d81610b22565b610c6684610b37565b81016020851015610c75578190505b610c89610c8185610b37565b830182610c28565b50505b505050565b600082821c905092915050565b6000610caf60001984600802610c91565b1980831691505092915050565b6000610cc88383610c9e565b9150826002028217905092915050565b610ce1826105b6565b67ffffffffffffffff811115610cfa57610cf9610846565b5b610d048254610ac2565b610d0f828285610c4b565b600060209050601f831160018114610d425760008415610d30578287015190505b610d3a8582610cbc565b865550610da2565b601f198416610d5086610b22565b60005b82811015610d7857848901518255600182019150602085019450602081019050610d53565b86831015610d955784890151610d91601f891682610c9e565b8355505b6001600288020188555050505b505050505050565b7f4e487b7100000000000000000000000000000000000000000000000000000000600052601160045260246000fd5b6000610de482610ba6565b91507fffffffffffffffffffffffffffffffffffffffffffffffffffffffffffffffff8203610e1657610e15610daa565b5b60018201905091905056fea2646970667358221220360f9277a27b24e5904203e526e0244de251f875b08fd6e1044e15f9de4a8f7564736f6c63430008110033",
  "immutableReferences": {},
  "source": "// SPDX-License-Identifier: MIT\r\n\r\npragma solidity ^0.8.16;\r\n\r\ncontract CryptoMarket{\r\n\r\n    struct ContractProperties{\r\n        address CryptoMarketOwner;\r\n        address[] registeredUserAdderss;\r\n        mapping (address => string[]) itemAndOwner;\r\n    }\r\n\r\n    \r\n    \r\n    mapping (address => bool) hasRegistered;\r\n    \r\n    \r\n   \r\n    ContractProperties contractProperties;\r\n\r\n    function cryptomarket() public{\r\n         \r\n         contractProperties.CryptoMarketOwner = msg.sender;\r\n    }\r\n\r\n    function checkUserRegistration() public view returns(bool){\r\n        return hasRegistered[msg.sender];\r\n    }\r\n\r\n    function registerUser() public {\r\n        if (!hasRegistered[msg.sender]){\r\n            hasRegistered[msg.sender] = true;\r\n            contractProperties.registeredUserAdderss.push(msg.sender);\r\n        }\r\n    }\r\n\r\n    function buyitem(string[2] memory item) public payable {\r\n        \r\n        for (uint i=0; i<item.length; i++){\r\n\r\n           \r\n            contractProperties.itemAndOwner[msg.sender].push(item[i]);\r\n            \r\n            \r\n        }\r\n        \r\n        \r\n        \r\n        \r\n\r\n    }\r\n\r\n    function getUserItems() public view  returns(string[] memory) {\r\n        \r\n       return  contractProperties.itemAndOwner[msg.sender];\r\n\r\n     }\r\n    \r\n\r\n    \r\n\r\n    function getContractProperties() public view returns(address, address[] memory){\r\n\r\n        return (contractProperties.CryptoMarketOwner, contractProperties.registeredUserAdderss);\r\n    }\r\n\r\n\r\n    \r\n}",
  "sourcePath": "C:\\Users\\dvipa\\OneDrive\\Desktop\\CryptoMarket\\CryptoMarket\\contracts\\CryptoMarket.sol",
  "compiler": {
    "name": "solc",
    "version": "0.8.17+commit.8df45f5f.Emscripten.clang"
  },
  "schemaVersion": "3.4.9",
  "updatedAt": "2022-09-08T19:13:01.944Z",
  "networkType": "ethereum",
  "devdoc": {
    "kind": "dev",
    "methods": {},
    "version": 1
  },
  "userdoc": {
    "kind": "user",
    "methods": {},
    "version": 1
  }
}