{
  "contractName": "CryptoMarket",
  "abi": [
    {
      "inputs": [],
      "name": "cryptomarket",
      "outputs": [],
      "stateMutability": "nonpayable",
      "type": "function"
    },
    {
      "inputs": [],
      "name": "checkUserRegistration",
      "outputs": [
        {
          "internalType": "bool",
          "name": "",
          "type": "bool"
        }
      ],
      "stateMutability": "view",
      "type": "function",
      "constant": true
    },
    {
      "inputs": [],
      "name": "registerUser",
      "outputs": [],
      "stateMutability": "nonpayable",
      "type": "function"
    },
    {
      "inputs": [
        {
          "internalType": "bytes[]",
          "name": "item",
          "type": "bytes[]"
        }
      ],
      "name": "buyitem",
      "outputs": [],
      "stateMutability": "payable",
      "type": "function",
      "payable": true
    },
    {
      "inputs": [],
      "name": "getUserItems",
      "outputs": [
        {
          "internalType": "bytes[]",
          "name": "",
          "type": "bytes[]"
        }
      ],
      "stateMutability": "view",
      "type": "function",
      "constant": true
    },
    {
      "inputs": [],
      "name": "getContractProperties",
      "outputs": [
        {
          "internalType": "address",
          "name": "",
          "type": "address"
        },
        {
          "internalType": "address[]",
          "name": "",
          "type": "address[]"
        }
      ],
      "stateMutability": "view",
      "type": "function",
      "constant": true
    }
  ],
  "bytecode": "0x608060405234801561001057600080fd5b50610e74806100206000396000f3fe6080604052600436106100555760003560e01c8063013150311461005a5780632c638444146100715780634d3820eb1461008d5780636252194d146100a45780636502096a146100cf5780636e9a215e146100fa575b600080fd5b34801561006657600080fd5b5061006f610126565b005b61008b6004803603810190610086919061079f565b61016c565b005b34801561009957600080fd5b506100a2610226565b005b3480156100b057600080fd5b506100b9610335565b6040516100c69190610803565b60405180910390f35b3480156100db57600080fd5b506100e4610388565b6040516100f1919061095f565b60405180910390f35b34801561010657600080fd5b5061010f6104a1565b60405161011d929190610a80565b60405180910390f35b33600160000160006101000a81548173ffffffffffffffffffffffffffffffffffffffff021916908373ffffffffffffffffffffffffffffffffffffffff160217905550565b60008082519050600091505b80821161022157600160020160003373ffffffffffffffffffffffffffffffffffffffff1673ffffffffffffffffffffffffffffffffffffffff1681526020019081526020016000208383815181106101d4576101d3610ab0565b5b602002602001015190806001815401808255809150506001900390600052602060002001600090919091909150908161020d9190610cf5565b50818061021990610df6565b925050610178565b505050565b6000803373ffffffffffffffffffffffffffffffffffffffff1673ffffffffffffffffffffffffffffffffffffffff16815260200190815260200160002060009054906101000a900460ff166103335760016000803373ffffffffffffffffffffffffffffffffffffffff1673ffffffffffffffffffffffffffffffffffffffff16815260200190815260200160002060006101000a81548160ff02191690831515021790555060018001339080600181540180825580915050600190039060005260206000200160009091909190916101000a81548173ffffffffffffffffffffffffffffffffffffffff021916908373ffffffffffffffffffffffffffffffffffffffff1602179055505b565b60008060003373ffffffffffffffffffffffffffffffffffffffff1673ffffffffffffffffffffffffffffffffffffffff16815260200190815260200160002060009054906101000a900460ff16905090565b6060600160020160003373ffffffffffffffffffffffffffffffffffffffff1673ffffffffffffffffffffffffffffffffffffffff168152602001908152602001600020805480602002602001604051908101604052809291908181526020016000905b8282101561049857838290600052602060002001805461040b90610b0e565b80601f016020809104026020016040519081016040528092919081815260200182805461043790610b0e565b80156104845780601f1061045957610100808354040283529160200191610484565b820191906000526020600020905b81548152906001019060200180831161046757829003601f168201915b5050505050815260200190600101906103ec565b50505050905090565b60006060600160000160009054906101000a900473ffffffffffffffffffffffffffffffffffffffff16600180018080548060200260200160405190810160405280929190818152602001828054801561055057602002820191906000526020600020905b8160009054906101000a900473ffffffffffffffffffffffffffffffffffffffff1673ffffffffffffffffffffffffffffffffffffffff1681526020019060010190808311610506575b50505050509050915091509091565b6000604051905090565b600080fd5b600080fd5b600080fd5b6000601f19601f8301169050919050565b7f4e487b7100000000000000000000000000000000000000000000000000000000600052604160045260246000fd5b6105c182610578565b810181811067ffffffffffffffff821117156105e0576105df610589565b5b80604052505050565b60006105f361055f565b90506105ff82826105b8565b919050565b600067ffffffffffffffff82111561061f5761061e610589565b5b602082029050602081019050919050565b600080fd5b600080fd5b600067ffffffffffffffff82111561065557610654610589565b5b61065e82610578565b9050602081019050919050565b82818337600083830152505050565b600061068d6106888461063a565b6105e9565b9050828152602081018484840111156106a9576106a8610635565b5b6106b484828561066b565b509392505050565b600082601f8301126106d1576106d0610573565b5b81356106e184826020860161067a565b91505092915050565b60006106fd6106f884610604565b6105e9565b905080838252602082019050602084028301858111156107205761071f610630565b5b835b8181101561076757803567ffffffffffffffff81111561074557610744610573565b5b80860161075289826106bc565b85526020850194505050602081019050610722565b5050509392505050565b600082601f83011261078657610785610573565b5b81356107968482602086016106ea565b91505092915050565b6000602082840312156107b5576107b4610569565b5b600082013567ffffffffffffffff8111156107d3576107d261056e565b5b6107df84828501610771565b91505092915050565b60008115159050919050565b6107fd816107e8565b82525050565b600060208201905061081860008301846107f4565b92915050565b600081519050919050565b600082825260208201905092915050565b6000819050602082019050919050565b600081519050919050565b600082825260208201905092915050565b60005b83811015610884578082015181840152602081019050610869565b60008484015250505050565b600061089b8261084a565b6108a58185610855565b93506108b5818560208601610866565b6108be81610578565b840191505092915050565b60006108d58383610890565b905092915050565b6000602082019050919050565b60006108f58261081e565b6108ff8185610829565b9350836020820285016109118561083a565b8060005b8581101561094d578484038952815161092e85826108c9565b9450610939836108dd565b925060208a01995050600181019050610915565b50829750879550505050505092915050565b6000602082019050818103600083015261097981846108ea565b905092915050565b600073ffffffffffffffffffffffffffffffffffffffff82169050919050565b60006109ac82610981565b9050919050565b6109bc816109a1565b82525050565b600081519050919050565b600082825260208201905092915050565b6000819050602082019050919050565b6109f7816109a1565b82525050565b6000610a0983836109ee565b60208301905092915050565b6000602082019050919050565b6000610a2d826109c2565b610a3781856109cd565b9350610a42836109de565b8060005b83811015610a73578151610a5a88826109fd565b9750610a6583610a15565b925050600181019050610a46565b5085935050505092915050565b6000604082019050610a9560008301856109b3565b8181036020830152610aa78184610a22565b90509392505050565b7f4e487b7100000000000000000000000000000000000000000000000000000000600052603260045260246000fd5b7f4e487b7100000000000000000000000000000000000000000000000000000000600052602260045260246000fd5b60006002820490506001821680610b2657607f821691505b602082108103610b3957610b38610adf565b5b50919050565b60008190508160005260206000209050919050565b60006020601f8301049050919050565b600082821b905092915050565b600060088302610ba17fffffffffffffffffffffffffffffffffffffffffffffffffffffffffffffffff82610b64565b610bab8683610b64565b95508019841693508086168417925050509392505050565b6000819050919050565b6000819050919050565b6000610bf2610bed610be884610bc3565b610bcd565b610bc3565b9050919050565b6000819050919050565b610c0c83610bd7565b610c20610c1882610bf9565b848454610b71565b825550505050565b600090565b610c35610c28565b610c40818484610c03565b505050565b5b81811015610c6457610c59600082610c2d565b600181019050610c46565b5050565b601f821115610ca957610c7a81610b3f565b610c8384610b54565b81016020851015610c92578190505b610ca6610c9e85610b54565b830182610c45565b50505b505050565b600082821c905092915050565b6000610ccc60001984600802610cae565b1980831691505092915050565b6000610ce58383610cbb565b9150826002028217905092915050565b610cfe8261084a565b67ffffffffffffffff811115610d1757610d16610589565b5b610d218254610b0e565b610d2c828285610c68565b600060209050601f831160018114610d5f5760008415610d4d578287015190505b610d578582610cd9565b865550610dbf565b601f198416610d6d86610b3f565b60005b82811015610d9557848901518255600182019150602085019450602081019050610d70565b86831015610db25784890151610dae601f891682610cbb565b8355505b6001600288020188555050505b505050505050565b7f4e487b7100000000000000000000000000000000000000000000000000000000600052601160045260246000fd5b6000610e0182610bc3565b91507fffffffffffffffffffffffffffffffffffffffffffffffffffffffffffffffff8203610e3357610e32610dc7565b5b60018201905091905056fea2646970667358221220cbbdeb93fe1e8d6dfa89ec05c868296e5df093915d266d22ee4322c3442648e264736f6c63430008110033",
  "immutableReferences": {},
  "source": "// SPDX-License-Identifier: MIT\r\n\r\npragma solidity ^0.8.16;\r\n\r\ncontract CryptoMarket{\r\n\r\n    struct ContractProperties{\r\n        address CryptoMarketOwner;\r\n        address[] registeredUserAdderss;\r\n        mapping (address => bytes[]) itemAndOwner;\r\n    }\r\n\r\n    \r\n    \r\n    mapping (address => bool) hasRegistered;\r\n    \r\n    \r\n   \r\n    ContractProperties contractProperties;\r\n\r\n    function cryptomarket() public{\r\n         \r\n         contractProperties.CryptoMarketOwner = msg.sender;\r\n    }\r\n\r\n    function checkUserRegistration() public view returns(bool){\r\n        return hasRegistered[msg.sender];\r\n    }\r\n\r\n    function registerUser() public {\r\n        if (!hasRegistered[msg.sender]){\r\n            hasRegistered[msg.sender] = true;\r\n            contractProperties.registeredUserAdderss.push(msg.sender);\r\n        }\r\n    }\r\n\r\n    function buyitem(bytes[] memory item) public payable {\r\n        \r\n        uint i;\r\n        uint x = item.length;\r\n        \r\n        for (i=0; i<=x; i++){\r\n           \r\n            contractProperties.itemAndOwner[msg.sender].push(item[i]);\r\n            \r\n        }\r\n      \r\n        \r\n        \r\n        \r\n        \r\n\r\n    }\r\n\r\n    function getUserItems() public view  returns(bytes[] memory) {\r\n        \r\n       return  contractProperties.itemAndOwner[msg.sender];\r\n\r\n     }\r\n    \r\n\r\n    \r\n\r\n    function getContractProperties() public view returns(address, address[] memory){\r\n\r\n        return (contractProperties.CryptoMarketOwner, contractProperties.registeredUserAdderss);\r\n    }\r\n\r\n\r\n    \r\n}",
  "sourcePath": "D:\\CryptoMarket\\contracts\\CryptoMarket.sol",
  "compiler": {
    "name": "solc",
    "version": "0.8.17+commit.8df45f5f.Emscripten.clang"
  },
  "schemaVersion": "3.4.9",
  "updatedAt": "2022-09-19T22:03:00.865Z",
  "networkType": "ethereum",
  "devdoc": {
    "kind": "dev",
    "methods": {},
    "version": 1
  },
  "userdoc": {
    "kind": "user",
    "methods": {},
    "version": 1
  }
}