{
  "contractName": "CryptoMarket",
  "abi": [
    {
      "inputs": [],
      "name": "cryptomarket",
      "outputs": [],
      "stateMutability": "nonpayable",
      "type": "function"
    },
    {
      "inputs": [],
      "name": "checkUserRegistration",
      "outputs": [
        {
          "internalType": "bool",
          "name": "",
          "type": "bool"
        }
      ],
      "stateMutability": "view",
      "type": "function"
    },
    {
      "inputs": [],
      "name": "registerUser",
      "outputs": [],
      "stateMutability": "nonpayable",
      "type": "function"
    },
    {
      "inputs": [],
      "name": "getContractProperties",
      "outputs": [
        {
          "internalType": "address",
          "name": "",
          "type": "address"
        },
        {
          "internalType": "address[]",
          "name": "",
          "type": "address[]"
        }
      ],
      "stateMutability": "view",
      "type": "function"
    }
  ],
  "bytecode": "0x608060405234801561001057600080fd5b506104a5806100206000396000f3fe608060405234801561001057600080fd5b506004361061004c5760003560e01c806301315031146100515780634d3820eb1461005b5780636252194d146100655780636e9a215e14610083575b600080fd5b6100596100a2565b005b6100636100e8565b005b61006d6101f8565b60405161007a9190610325565b60405180910390f35b61008b61024b565b60405161009992919061043f565b60405180910390f35b33600260000160006101000a81548173ffffffffffffffffffffffffffffffffffffffff021916908373ffffffffffffffffffffffffffffffffffffffff160217905550565b6000803373ffffffffffffffffffffffffffffffffffffffff1673ffffffffffffffffffffffffffffffffffffffff16815260200190815260200160002060009054906101000a900460ff166101f65760016000803373ffffffffffffffffffffffffffffffffffffffff1673ffffffffffffffffffffffffffffffffffffffff16815260200190815260200160002060006101000a81548160ff0219169083151502179055506002600101339080600181540180825580915050600190039060005260206000200160009091909190916101000a81548173ffffffffffffffffffffffffffffffffffffffff021916908373ffffffffffffffffffffffffffffffffffffffff1602179055505b565b60008060003373ffffffffffffffffffffffffffffffffffffffff1673ffffffffffffffffffffffffffffffffffffffff16815260200190815260200160002060009054906101000a900460ff16905090565b60006060600260000160009054906101000a900473ffffffffffffffffffffffffffffffffffffffff166002600101808054806020026020016040519081016040528092919081815260200182805480156102fb57602002820191906000526020600020905b8160009054906101000a900473ffffffffffffffffffffffffffffffffffffffff1673ffffffffffffffffffffffffffffffffffffffff16815260200190600101908083116102b1575b50505050509050915091509091565b60008115159050919050565b61031f8161030a565b82525050565b600060208201905061033a6000830184610316565b92915050565b600073ffffffffffffffffffffffffffffffffffffffff82169050919050565b600061036b82610340565b9050919050565b61037b81610360565b82525050565b600081519050919050565b600082825260208201905092915050565b6000819050602082019050919050565b6103b681610360565b82525050565b60006103c883836103ad565b60208301905092915050565b6000602082019050919050565b60006103ec82610381565b6103f6818561038c565b93506104018361039d565b8060005b8381101561043257815161041988826103bc565b9750610424836103d4565b925050600181019050610405565b5085935050505092915050565b60006040820190506104546000830185610372565b818103602083015261046681846103e1565b9050939250505056fea264697066735822122061e89f456b75ae7e113d52c022b86b9c91f2343f22e071482ec89577c8107dcf64736f6c63430008100033",
  "immutableReferences": {},
  "source": "// SPDX-License-Identifier: MIT\r\n\r\npragma solidity ^0.8.16;\r\n\r\ncontract CryptoMarket{\r\n\r\n    struct ContractProperties{\r\n        address CryptoMarketOwner;\r\n        address[] registeredUserAdderss;\r\n        string[] soldItems;\r\n    }\r\n    \r\n    mapping (address => bool) hasRegistered;\r\n    mapping (address => string) userItem;\r\n   \r\n    ContractProperties contractProperties;\r\n\r\n    function cryptomarket() public{\r\n         \r\n         contractProperties.CryptoMarketOwner = msg.sender;\r\n    }\r\n\r\n    function checkUserRegistration() public view returns(bool){\r\n        return hasRegistered[msg.sender];\r\n    }\r\n\r\n    function registerUser() public {\r\n        if (!hasRegistered[msg.sender]){\r\n            hasRegistered[msg.sender] = true;\r\n            contractProperties.registeredUserAdderss.push(msg.sender);\r\n        }\r\n    }\r\n\r\n    // function buyItem(string memory item, address payable _to ) public payable returns(bool result, address addr, data)  {\r\n    //     address owner = msg.sender;\r\n    //     (bool sent, bytes memory data) = _to.call{value: msg.value}(\"\");\r\n    //     require(sent, \"Failed to send Ether\");\r\n    //     if (sent){\r\n    //         item = userItem[owner];\r\n    //         contractProperties.soldItems.push(item);\r\n    //         result = true;\r\n    //         return (result, owner, data);\r\n    //     }\r\n\r\n    //     else{\r\n    //         result= false;\r\n    //         return (result, _to, data);\r\n    //     }\r\n        \r\n    // }\r\n\r\n    function getContractProperties() public view returns(address, address[] memory){\r\n\r\n        return (contractProperties.CryptoMarketOwner, contractProperties.registeredUserAdderss);\r\n    }\r\n\r\n\r\n    \r\n}",
  "sourcePath": "C:\\Users\\dvipa\\OneDrive\\Desktop\\CryptoMarket\\CryptoMarket\\contracts\\CryptoMarket.sol",
  "compiler": {
    "name": "solc",
    "version": "0.8.16+commit.07a7930e.Emscripten.clang"
  },
  "schemaVersion": "3.4.9",
  "updatedAt": "2022-09-01T16:41:52.552Z",
  "devdoc": {
    "kind": "dev",
    "methods": {},
    "version": 1
  },
  "userdoc": {
    "kind": "user",
    "methods": {},
    "version": 1
  }
}