{
  "contractName": "CryptoMarket",
  "abi": [
    {
      "inputs": [],
      "name": "cryptomarket",
      "outputs": [],
      "stateMutability": "nonpayable",
      "type": "function"
    },
    {
      "inputs": [],
      "name": "checkUserRegistration",
      "outputs": [
        {
          "internalType": "bool",
          "name": "",
          "type": "bool"
        }
      ],
      "stateMutability": "view",
      "type": "function"
    },
    {
      "inputs": [],
      "name": "registerUser",
      "outputs": [],
      "stateMutability": "nonpayable",
      "type": "function"
    }
  ],
  "bytecode": "0x608060405234801561001057600080fd5b5061028c806100206000396000f3fe608060405234801561001057600080fd5b50600436106100415760003560e01c806301315031146100465780634d3820eb146100505780636252194d1461005a575b600080fd5b61004e610078565b005b6100586100be565b005b6100626101cd565b60405161006f919061023b565b60405180910390f35b33600160000160006101000a81548173ffffffffffffffffffffffffffffffffffffffff021916908373ffffffffffffffffffffffffffffffffffffffff160217905550565b6000803373ffffffffffffffffffffffffffffffffffffffff1673ffffffffffffffffffffffffffffffffffffffff16815260200190815260200160002060009054906101000a900460ff166101cb5760016000803373ffffffffffffffffffffffffffffffffffffffff1673ffffffffffffffffffffffffffffffffffffffff16815260200190815260200160002060006101000a81548160ff02191690831515021790555060018001339080600181540180825580915050600190039060005260206000200160009091909190916101000a81548173ffffffffffffffffffffffffffffffffffffffff021916908373ffffffffffffffffffffffffffffffffffffffff1602179055505b565b60008060003373ffffffffffffffffffffffffffffffffffffffff1673ffffffffffffffffffffffffffffffffffffffff16815260200190815260200160002060009054906101000a900460ff16905090565b60008115159050919050565b61023581610220565b82525050565b6000602082019050610250600083018461022c565b9291505056fea26469706673582212206810a759ecac1d92af5aed50909b523a0af6ec74b2bccecc706ed1601676369864736f6c63430008100033",
  "immutableReferences": {},
  "source": "// SPDX-License-Identifier: MIT\r\n\r\npragma solidity ^0.8.16;\r\nimport \"@openzeppelin/contracts/utils/Strings.sol\";\r\n\r\ncontract CryptoMarket{\r\n\r\n    struct ContractProperties{\r\n        address CryptoMarketOwner;\r\n        address[] registeredUserAdderss;\r\n        string[] items;\r\n    }\r\n    \r\n    mapping (address => bool) hasRegistered;\r\n   \r\n    ContractProperties contractProperties;\r\n\r\n    function cryptomarket() public{\r\n         \r\n         contractProperties.CryptoMarketOwner = msg.sender;\r\n    }\r\n\r\n    function checkUserRegistration() public view returns(bool){\r\n        return hasRegistered[msg.sender];\r\n    }\r\n\r\n    function registerUser() public {\r\n        if (!hasRegistered[msg.sender]){\r\n            hasRegistered[msg.sender] = true;\r\n            contractProperties.registeredUserAdderss.push(msg.sender);\r\n        }\r\n    }\r\n\r\n    // function addItem(string memory item ) public  {\r\n    //     string memory Item = item;\r\n    //     string memory length = Strings.toString((bytes(item).length));\r\n    //     address setter = msg.sender;\r\n    //     string memory item_details = string.concat(Item,\",\",length,\",\",setter);\r\n    //     contractProperties.items.push(item_details);\r\n    // }\r\n\r\n    \r\n}",
  "sourcePath": "D:\\BlockChain-Project\\Dapp_Project_2\\contracts\\CryptoMarket.sol",
  "compiler": {
    "name": "solc",
    "version": "0.8.16+commit.07a7930e.Emscripten.clang"
  },
  "schemaVersion": "3.4.9",
  "updatedAt": "2022-08-27T12:08:06.837Z",
  "devdoc": {
    "kind": "dev",
    "methods": {},
    "version": 1
  },
  "userdoc": {
    "kind": "user",
    "methods": {},
    "version": 1
  }
}