{
  "contractName": "CryptoMarket",
  "abi": [
    {
      "inputs": [],
      "name": "cryptomarket",
      "outputs": [],
      "stateMutability": "nonpayable",
      "type": "function"
    },
    {
      "inputs": [],
      "name": "checkUserRegistration",
      "outputs": [
        {
          "internalType": "bool",
          "name": "",
          "type": "bool"
        }
      ],
      "stateMutability": "view",
      "type": "function",
      "constant": true
    },
    {
      "inputs": [],
      "name": "registerUser",
      "outputs": [],
      "stateMutability": "nonpayable",
      "type": "function"
    },
    {
      "inputs": [
        {
          "internalType": "string[]",
          "name": "item",
          "type": "string[]"
        }
      ],
      "name": "buyitem",
      "outputs": [],
      "stateMutability": "payable",
      "type": "function",
      "payable": true
    },
    {
      "inputs": [],
      "name": "getUserItems",
      "outputs": [
        {
          "internalType": "string[]",
          "name": "",
          "type": "string[]"
        }
      ],
      "stateMutability": "view",
      "type": "function",
      "constant": true
    },
    {
      "inputs": [],
      "name": "getContractProperties",
      "outputs": [
        {
          "internalType": "address",
          "name": "",
          "type": "address"
        },
        {
          "internalType": "address[]",
          "name": "",
          "type": "address[]"
        }
      ],
      "stateMutability": "view",
      "type": "function",
      "constant": true
    }
  ],
  "bytecode": "0x608060405234801561001057600080fd5b50610d6f806100206000396000f3fe6080604052600436106100555760003560e01c8063013150311461005a578063145d37d1146100715780634d3820eb1461008d5780636252194d146100a45780636502096a146100cf5780636e9a215e146100fa575b600080fd5b34801561006657600080fd5b5061006f610126565b005b61008b600480360381019061008691906105db565b61016c565b005b34801561009957600080fd5b506100a2610233565b005b3480156100b057600080fd5b506100b9610342565b6040516100c69190610643565b60405180910390f35b3480156100db57600080fd5b506100e4610395565b6040516100f191906107b0565b60405180910390f35b34801561010657600080fd5b5061010f6104ae565b60405161011d9291906108d1565b60405180910390f35b33600160000160006101000a81548173ffffffffffffffffffffffffffffffffffffffff021916908373ffffffffffffffffffffffffffffffffffffffff160217905550565b60005b8282905081101561022e57600160020160003373ffffffffffffffffffffffffffffffffffffffff1673ffffffffffffffffffffffffffffffffffffffff1681526020019081526020016000208383838181106101cf576101ce610901565b5b90506020028101906101e1919061093f565b9091806001815401808255809150506001900390600052602060002001600090919290919290919290919250918261021a929190610bf2565b50808061022690610cf1565b91505061016f565b505050565b6000803373ffffffffffffffffffffffffffffffffffffffff1673ffffffffffffffffffffffffffffffffffffffff16815260200190815260200160002060009054906101000a900460ff166103405760016000803373ffffffffffffffffffffffffffffffffffffffff1673ffffffffffffffffffffffffffffffffffffffff16815260200190815260200160002060006101000a81548160ff02191690831515021790555060018001339080600181540180825580915050600190039060005260206000200160009091909190916101000a81548173ffffffffffffffffffffffffffffffffffffffff021916908373ffffffffffffffffffffffffffffffffffffffff1602179055505b565b60008060003373ffffffffffffffffffffffffffffffffffffffff1673ffffffffffffffffffffffffffffffffffffffff16815260200190815260200160002060009054906101000a900460ff16905090565b6060600160020160003373ffffffffffffffffffffffffffffffffffffffff1673ffffffffffffffffffffffffffffffffffffffff168152602001908152602001600020805480602002602001604051908101604052809291908181526020016000905b828210156104a557838290600052602060002001805461041890610a0b565b80601f016020809104026020016040519081016040528092919081815260200182805461044490610a0b565b80156104915780601f1061046657610100808354040283529160200191610491565b820191906000526020600020905b81548152906001019060200180831161047457829003601f168201915b5050505050815260200190600101906103f9565b50505050905090565b60006060600160000160009054906101000a900473ffffffffffffffffffffffffffffffffffffffff16600180018080548060200260200160405190810160405280929190818152602001828054801561055d57602002820191906000526020600020905b8160009054906101000a900473ffffffffffffffffffffffffffffffffffffffff1673ffffffffffffffffffffffffffffffffffffffff1681526020019060010190808311610513575b50505050509050915091509091565b600080fd5b600080fd5b600080fd5b600080fd5b600080fd5b60008083601f84011261059b5761059a610576565b5b8235905067ffffffffffffffff8111156105b8576105b761057b565b5b6020830191508360208202830111156105d4576105d3610580565b5b9250929050565b600080602083850312156105f2576105f161056c565b5b600083013567ffffffffffffffff8111156106105761060f610571565b5b61061c85828601610585565b92509250509250929050565b60008115159050919050565b61063d81610628565b82525050565b60006020820190506106586000830184610634565b92915050565b600081519050919050565b600082825260208201905092915050565b6000819050602082019050919050565b600081519050919050565b600082825260208201905092915050565b60005b838110156106c45780820151818401526020810190506106a9565b60008484015250505050565b6000601f19601f8301169050919050565b60006106ec8261068a565b6106f68185610695565b93506107068185602086016106a6565b61070f816106d0565b840191505092915050565b600061072683836106e1565b905092915050565b6000602082019050919050565b60006107468261065e565b6107508185610669565b9350836020820285016107628561067a565b8060005b8581101561079e578484038952815161077f858261071a565b945061078a8361072e565b925060208a01995050600181019050610766565b50829750879550505050505092915050565b600060208201905081810360008301526107ca818461073b565b905092915050565b600073ffffffffffffffffffffffffffffffffffffffff82169050919050565b60006107fd826107d2565b9050919050565b61080d816107f2565b82525050565b600081519050919050565b600082825260208201905092915050565b6000819050602082019050919050565b610848816107f2565b82525050565b600061085a838361083f565b60208301905092915050565b6000602082019050919050565b600061087e82610813565b610888818561081e565b93506108938361082f565b8060005b838110156108c45781516108ab888261084e565b97506108b683610866565b925050600181019050610897565b5085935050505092915050565b60006040820190506108e66000830185610804565b81810360208301526108f88184610873565b90509392505050565b7f4e487b7100000000000000000000000000000000000000000000000000000000600052603260045260246000fd5b600080fd5b600080fd5b600080fd5b6000808335600160200384360303811261095c5761095b610930565b5b80840192508235915067ffffffffffffffff82111561097e5761097d610935565b5b60208301925060018202360383131561099a5761099961093a565b5b509250929050565b600082905092915050565b7f4e487b7100000000000000000000000000000000000000000000000000000000600052604160045260246000fd5b7f4e487b7100000000000000000000000000000000000000000000000000000000600052602260045260246000fd5b60006002820490506001821680610a2357607f821691505b602082108103610a3657610a356109dc565b5b50919050565b60008190508160005260206000209050919050565b60006020601f8301049050919050565b600082821b905092915050565b600060088302610a9e7fffffffffffffffffffffffffffffffffffffffffffffffffffffffffffffffff82610a61565b610aa88683610a61565b95508019841693508086168417925050509392505050565b6000819050919050565b6000819050919050565b6000610aef610aea610ae584610ac0565b610aca565b610ac0565b9050919050565b6000819050919050565b610b0983610ad4565b610b1d610b1582610af6565b848454610a6e565b825550505050565b600090565b610b32610b25565b610b3d818484610b00565b505050565b5b81811015610b6157610b56600082610b2a565b600181019050610b43565b5050565b601f821115610ba657610b7781610a3c565b610b8084610a51565b81016020851015610b8f578190505b610ba3610b9b85610a51565b830182610b42565b50505b505050565b600082821c905092915050565b6000610bc960001984600802610bab565b1980831691505092915050565b6000610be28383610bb8565b9150826002028217905092915050565b610bfc83836109a2565b67ffffffffffffffff811115610c1557610c146109ad565b5b610c1f8254610a0b565b610c2a828285610b65565b6000601f831160018114610c595760008415610c47578287013590505b610c518582610bd6565b865550610cb9565b601f198416610c6786610a3c565b60005b82811015610c8f57848901358255600182019150602085019450602081019050610c6a565b86831015610cac5784890135610ca8601f891682610bb8565b8355505b6001600288020188555050505b50505050505050565b7f4e487b7100000000000000000000000000000000000000000000000000000000600052601160045260246000fd5b6000610cfc82610ac0565b91507fffffffffffffffffffffffffffffffffffffffffffffffffffffffffffffffff8203610d2e57610d2d610cc2565b5b60018201905091905056fea26469706673582212204541d8bb4189c026454f08c58b16775a45491d9a2d587eeefaf00f868f5e959264736f6c63430008100033",
  "immutableReferences": {},
  "source": "// SPDX-License-Identifier: MIT\r\n\r\npragma solidity ^0.8.16;\r\n\r\ncontract CryptoMarket{\r\n\r\n    struct ContractProperties{\r\n        address CryptoMarketOwner;\r\n        address[] registeredUserAdderss;\r\n        mapping (address => string[]) itemAndOwner;\r\n    }\r\n\r\n    \r\n    \r\n    mapping (address => bool) hasRegistered;\r\n    \r\n    \r\n   \r\n    ContractProperties contractProperties;\r\n\r\n    function cryptomarket() public{\r\n         \r\n         contractProperties.CryptoMarketOwner = msg.sender;\r\n    }\r\n\r\n    function checkUserRegistration() public view returns(bool){\r\n        return hasRegistered[msg.sender];\r\n    }\r\n\r\n    function registerUser() public {\r\n        if (!hasRegistered[msg.sender]){\r\n            hasRegistered[msg.sender] = true;\r\n            contractProperties.registeredUserAdderss.push(msg.sender);\r\n        }\r\n    }\r\n\r\n    function buyitem(string[] calldata item) public payable {\r\n        \r\n        for (uint i=0; i<item.length; i++){\r\n\r\n           \r\n            contractProperties.itemAndOwner[msg.sender].push(item[i]);\r\n            \r\n            \r\n        }\r\n        \r\n        \r\n        \r\n        \r\n\r\n    }\r\n\r\n    function getUserItems() public view  returns(string[] memory) {\r\n        \r\n       return  contractProperties.itemAndOwner[msg.sender];\r\n\r\n     }\r\n    \r\n\r\n    \r\n\r\n    function getContractProperties() public view returns(address, address[] memory){\r\n\r\n        return (contractProperties.CryptoMarketOwner, contractProperties.registeredUserAdderss);\r\n    }\r\n\r\n\r\n    \r\n}",
  "sourcePath": "C:\\Users\\dvipa\\OneDrive\\Desktop\\CryptoMarket\\CryptoMarket\\contracts\\CryptoMarket.sol",
  "compiler": {
    "name": "solc",
    "version": "0.8.16+commit.07a7930e.Emscripten.clang"
  },
  "schemaVersion": "3.4.9",
  "updatedAt": "2022-09-08T15:27:12.341Z",
  "networkType": "ethereum",
  "devdoc": {
    "kind": "dev",
    "methods": {},
    "version": 1
  },
  "userdoc": {
    "kind": "user",
    "methods": {},
    "version": 1
  }
}