{
  "contractName": "CryptoMarket",
  "abi": [
    {
      "inputs": [],
      "name": "cryptomarket",
      "outputs": [],
      "stateMutability": "nonpayable",
      "type": "function"
    },
    {
      "inputs": [],
      "name": "checkUserRegistration",
      "outputs": [
        {
          "internalType": "bool",
          "name": "",
          "type": "bool"
        }
      ],
      "stateMutability": "view",
      "type": "function"
    },
    {
      "inputs": [],
      "name": "registerUser",
      "outputs": [],
      "stateMutability": "nonpayable",
      "type": "function"
    },
    {
      "inputs": [],
      "name": "BuyItem",
      "outputs": [],
      "stateMutability": "nonpayable",
      "type": "function"
    },
    {
      "inputs": [],
      "name": "getContractProperties",
      "outputs": [
        {
          "internalType": "address",
          "name": "",
          "type": "address"
        },
        {
          "internalType": "address[]",
          "name": "",
          "type": "address[]"
        }
      ],
      "stateMutability": "view",
      "type": "function"
    }
  ],
  "bytecode": "0x608060405234801561001057600080fd5b50610513806100206000396000f3fe608060405234801561001057600080fd5b50600436106100575760003560e01c8063013150311461005c5780634d3820eb146100665780636252194d146100705780636e9a215e1461008e578063af3465f6146100ad575b600080fd5b6100646100b7565b005b61006e6100fd565b005b61007861020d565b6040516100859190610393565b60405180910390f35b610096610260565b6040516100a49291906104ad565b60405180910390f35b6100b561031f565b005b33600260000160006101000a81548173ffffffffffffffffffffffffffffffffffffffff021916908373ffffffffffffffffffffffffffffffffffffffff160217905550565b6000803373ffffffffffffffffffffffffffffffffffffffff1673ffffffffffffffffffffffffffffffffffffffff16815260200190815260200160002060009054906101000a900460ff1661020b5760016000803373ffffffffffffffffffffffffffffffffffffffff1673ffffffffffffffffffffffffffffffffffffffff16815260200190815260200160002060006101000a81548160ff0219169083151502179055506002600101339080600181540180825580915050600190039060005260206000200160009091909190916101000a81548173ffffffffffffffffffffffffffffffffffffffff021916908373ffffffffffffffffffffffffffffffffffffffff1602179055505b565b60008060003373ffffffffffffffffffffffffffffffffffffffff1673ffffffffffffffffffffffffffffffffffffffff16815260200190815260200160002060009054906101000a900460ff16905090565b60006060600260000160009054906101000a900473ffffffffffffffffffffffffffffffffffffffff1660026001018080548060200260200160405190810160405280929190818152602001828054801561031057602002820191906000526020600020905b8160009054906101000a900473ffffffffffffffffffffffffffffffffffffffff1673ffffffffffffffffffffffffffffffffffffffff16815260200190600101908083116102c6575b50505050509050915091509091565b60018060003373ffffffffffffffffffffffffffffffffffffffff1673ffffffffffffffffffffffffffffffffffffffff16815260200190815260200160002060006101000a81548160ff021916908315150217905550565b60008115159050919050565b61038d81610378565b82525050565b60006020820190506103a86000830184610384565b92915050565b600073ffffffffffffffffffffffffffffffffffffffff82169050919050565b60006103d9826103ae565b9050919050565b6103e9816103ce565b82525050565b600081519050919050565b600082825260208201905092915050565b6000819050602082019050919050565b610424816103ce565b82525050565b6000610436838361041b565b60208301905092915050565b6000602082019050919050565b600061045a826103ef565b61046481856103fa565b935061046f8361040b565b8060005b838110156104a0578151610487888261042a565b975061049283610442565b925050600181019050610473565b5085935050505092915050565b60006040820190506104c260008301856103e0565b81810360208301526104d4818461044f565b9050939250505056fea2646970667358221220868276692b6b7eb11cb082a8275211a1cddcdc0534ad4192acbf0de3cf87be3a64736f6c63430008100033",
  "immutableReferences": {},
  "source": "// SPDX-License-Identifier: MIT\r\n\r\npragma solidity ^0.8.16;\r\n\r\ncontract CryptoMarket{\r\n\r\n    struct ContractProperties{\r\n        address CryptoMarketOwner;\r\n        address[] registeredUserAdderss;\r\n        string[] soldItems;\r\n    }\r\n\r\n    \r\n    \r\n    mapping (address => bool) hasRegistered;\r\n    mapping (address => bool) bought;\r\n    \r\n   \r\n    ContractProperties contractProperties;\r\n\r\n    function cryptomarket() public{\r\n         \r\n         contractProperties.CryptoMarketOwner = msg.sender;\r\n    }\r\n\r\n    function checkUserRegistration() public view returns(bool){\r\n        return hasRegistered[msg.sender];\r\n    }\r\n\r\n    function registerUser() public {\r\n        if (!hasRegistered[msg.sender]){\r\n            hasRegistered[msg.sender] = true;\r\n            contractProperties.registeredUserAdderss.push(msg.sender);\r\n        }\r\n    }\r\n\r\n    // function buyItem() public   {\r\n\r\n    //     // address owner = msg.sender;\r\n    //     // userItem[owner]  = item;\r\n    //     // txnHash[owner] = txn_hash;\r\n    //     // bool sold = true;\r\n        \r\n\r\n    // }\r\n\r\n    function BuyItem() public {\r\n        // if (!hasRegistered[msg.sender]){\r\n        //     hasRegistered[msg.sender] = true;\r\n        //     contractProperties.registeredUserAdderss.push(msg.sender);\r\n        bought[msg.sender] = true;\r\n\r\n        \r\n        \r\n    }\r\n\r\n    function getContractProperties() public view returns(address, address[] memory){\r\n\r\n        return (contractProperties.CryptoMarketOwner, contractProperties.registeredUserAdderss);\r\n    }\r\n\r\n\r\n    \r\n}",
  "sourcePath": "C:\\Users\\dvipa\\OneDrive\\Desktop\\CryptoMarket\\CryptoMarket\\contracts\\CryptoMarket.sol",
  "compiler": {
    "name": "solc",
    "version": "0.8.16+commit.07a7930e.Emscripten.clang"
  },
  "schemaVersion": "3.4.9",
  "updatedAt": "2022-09-04T14:39:34.196Z",
  "devdoc": {
    "kind": "dev",
    "methods": {},
    "version": 1
  },
  "userdoc": {
    "kind": "user",
    "methods": {},
    "version": 1
  }
}