{
  "contractName": "CryptoMarket",
  "abi": [
    {
      "inputs": [],
      "name": "cryptomarket",
      "outputs": [],
      "stateMutability": "nonpayable",
      "type": "function"
    },
    {
      "inputs": [],
      "name": "checkUserRegistration",
      "outputs": [
        {
          "internalType": "bool",
          "name": "",
          "type": "bool"
        }
      ],
      "stateMutability": "view",
      "type": "function",
      "constant": true
    },
    {
      "inputs": [],
      "name": "registerUser",
      "outputs": [],
      "stateMutability": "nonpayable",
      "type": "function"
    },
    {
      "inputs": [
        {
          "internalType": "bytes[]",
          "name": "item",
          "type": "bytes[]"
        }
      ],
      "name": "buyitem",
      "outputs": [],
      "stateMutability": "payable",
      "type": "function",
      "payable": true
    },
    {
      "inputs": [],
      "name": "getUserItems",
      "outputs": [
        {
          "internalType": "bytes[][]",
          "name": "",
          "type": "bytes[][]"
        }
      ],
      "stateMutability": "view",
      "type": "function",
      "constant": true
    },
    {
      "inputs": [],
      "name": "getContractProperties",
      "outputs": [
        {
          "internalType": "address",
          "name": "",
          "type": "address"
        },
        {
          "internalType": "address[]",
          "name": "",
          "type": "address[]"
        }
      ],
      "stateMutability": "view",
      "type": "function",
      "constant": true
    }
  ],
  "bytecode": "0x608060405234801561001057600080fd5b50610f76806100206000396000f3fe6080604052600436106100555760003560e01c8063013150311461005a5780632c638444146100715780634d3820eb1461008d5780636252194d146100a45780636502096a146100cf5780636e9a215e146100fa575b600080fd5b34801561006657600080fd5b5061006f610126565b005b61008b60048036038101906100869190610885565b61016c565b005b34801561009957600080fd5b506100a26101eb565b005b3480156100b057600080fd5b506100b96102fa565b6040516100c691906108e9565b60405180910390f35b3480156100db57600080fd5b506100e461034d565b6040516100f19190610b07565b60405180910390f35b34801561010657600080fd5b5061010f6104ad565b60405161011d929190610c28565b60405180910390f35b33600160000160006101000a81548173ffffffffffffffffffffffffffffffffffffffff021916908373ffffffffffffffffffffffffffffffffffffffff160217905550565b600160020160003373ffffffffffffffffffffffffffffffffffffffff1673ffffffffffffffffffffffffffffffffffffffff168152602001908152602001600020819080600181540180825580915050600190039060005260206000200160009091909190915090805190602001906101e792919061056b565b5050565b6000803373ffffffffffffffffffffffffffffffffffffffff1673ffffffffffffffffffffffffffffffffffffffff16815260200190815260200160002060009054906101000a900460ff166102f85760016000803373ffffffffffffffffffffffffffffffffffffffff1673ffffffffffffffffffffffffffffffffffffffff16815260200190815260200160002060006101000a81548160ff02191690831515021790555060018001339080600181540180825580915050600190039060005260206000200160009091909190916101000a81548173ffffffffffffffffffffffffffffffffffffffff021916908373ffffffffffffffffffffffffffffffffffffffff1602179055505b565b60008060003373ffffffffffffffffffffffffffffffffffffffff1673ffffffffffffffffffffffffffffffffffffffff16815260200190815260200160002060009054906101000a900460ff16905090565b6060600160020160003373ffffffffffffffffffffffffffffffffffffffff1673ffffffffffffffffffffffffffffffffffffffff168152602001908152602001600020805480602002602001604051908101604052809291908181526020016000905b828210156104a457838290600052602060002001805480602002602001604051908101604052809291908181526020016000905b8282101561049157838290600052602060002001805461040490610c87565b80601f016020809104026020016040519081016040528092919081815260200182805461043090610c87565b801561047d5780601f106104525761010080835404028352916020019161047d565b820191906000526020600020905b81548152906001019060200180831161046057829003601f168201915b5050505050815260200190600101906103e5565b50505050815260200190600101906103b1565b50505050905090565b60006060600160000160009054906101000a900473ffffffffffffffffffffffffffffffffffffffff16600180018080548060200260200160405190810160405280929190818152602001828054801561055c57602002820191906000526020600020905b8160009054906101000a900473ffffffffffffffffffffffffffffffffffffffff1673ffffffffffffffffffffffffffffffffffffffff1681526020019060010190808311610512575b50505050509050915091509091565b8280548282559060005260206000209081019282156105b3579160200282015b828111156105b25782518290816105a29190610e6e565b509160200191906001019061058b565b5b5090506105c091906105c4565b5090565b5b808211156105e457600081816105db91906105e8565b506001016105c5565b5090565b5080546105f490610c87565b6000825580601f106106065750610625565b601f0160209004906000526020600020908101906106249190610628565b5b50565b5b80821115610641576000816000905550600101610629565b5090565b6000604051905090565b600080fd5b600080fd5b600080fd5b6000601f19601f8301169050919050565b7f4e487b7100000000000000000000000000000000000000000000000000000000600052604160045260246000fd5b6106a78261065e565b810181811067ffffffffffffffff821117156106c6576106c561066f565b5b80604052505050565b60006106d9610645565b90506106e5828261069e565b919050565b600067ffffffffffffffff8211156107055761070461066f565b5b602082029050602081019050919050565b600080fd5b600080fd5b600067ffffffffffffffff82111561073b5761073a61066f565b5b6107448261065e565b9050602081019050919050565b82818337600083830152505050565b600061077361076e84610720565b6106cf565b90508281526020810184848401111561078f5761078e61071b565b5b61079a848285610751565b509392505050565b600082601f8301126107b7576107b6610659565b5b81356107c7848260208601610760565b91505092915050565b60006107e36107de846106ea565b6106cf565b9050808382526020820190506020840283018581111561080657610805610716565b5b835b8181101561084d57803567ffffffffffffffff81111561082b5761082a610659565b5b80860161083889826107a2565b85526020850194505050602081019050610808565b5050509392505050565b600082601f83011261086c5761086b610659565b5b813561087c8482602086016107d0565b91505092915050565b60006020828403121561089b5761089a61064f565b5b600082013567ffffffffffffffff8111156108b9576108b8610654565b5b6108c584828501610857565b91505092915050565b60008115159050919050565b6108e3816108ce565b82525050565b60006020820190506108fe60008301846108da565b92915050565b600081519050919050565b600082825260208201905092915050565b6000819050602082019050919050565b600081519050919050565b600082825260208201905092915050565b6000819050602082019050919050565b600081519050919050565b600082825260208201905092915050565b60005b8381101561099657808201518184015260208101905061097b565b60008484015250505050565b60006109ad8261095c565b6109b78185610967565b93506109c7818560208601610978565b6109d08161065e565b840191505092915050565b60006109e783836109a2565b905092915050565b6000602082019050919050565b6000610a0782610930565b610a11818561093b565b935083602082028501610a238561094c565b8060005b85811015610a5f5784840389528151610a4085826109db565b9450610a4b836109ef565b925060208a01995050600181019050610a27565b50829750879550505050505092915050565b6000610a7d83836109fc565b905092915050565b6000602082019050919050565b6000610a9d82610904565b610aa7818561090f565b935083602082028501610ab985610920565b8060005b85811015610af55784840389528151610ad68582610a71565b9450610ae183610a85565b925060208a01995050600181019050610abd565b50829750879550505050505092915050565b60006020820190508181036000830152610b218184610a92565b905092915050565b600073ffffffffffffffffffffffffffffffffffffffff82169050919050565b6000610b5482610b29565b9050919050565b610b6481610b49565b82525050565b600081519050919050565b600082825260208201905092915050565b6000819050602082019050919050565b610b9f81610b49565b82525050565b6000610bb18383610b96565b60208301905092915050565b6000602082019050919050565b6000610bd582610b6a565b610bdf8185610b75565b9350610bea83610b86565b8060005b83811015610c1b578151610c028882610ba5565b9750610c0d83610bbd565b925050600181019050610bee565b5085935050505092915050565b6000604082019050610c3d6000830185610b5b565b8181036020830152610c4f8184610bca565b90509392505050565b7f4e487b7100000000000000000000000000000000000000000000000000000000600052602260045260246000fd5b60006002820490506001821680610c9f57607f821691505b602082108103610cb257610cb1610c58565b5b50919050565b60008190508160005260206000209050919050565b60006020601f8301049050919050565b600082821b905092915050565b600060088302610d1a7fffffffffffffffffffffffffffffffffffffffffffffffffffffffffffffffff82610cdd565b610d248683610cdd565b95508019841693508086168417925050509392505050565b6000819050919050565b6000819050919050565b6000610d6b610d66610d6184610d3c565b610d46565b610d3c565b9050919050565b6000819050919050565b610d8583610d50565b610d99610d9182610d72565b848454610cea565b825550505050565b600090565b610dae610da1565b610db9818484610d7c565b505050565b5b81811015610ddd57610dd2600082610da6565b600181019050610dbf565b5050565b601f821115610e2257610df381610cb8565b610dfc84610ccd565b81016020851015610e0b578190505b610e1f610e1785610ccd565b830182610dbe565b50505b505050565b600082821c905092915050565b6000610e4560001984600802610e27565b1980831691505092915050565b6000610e5e8383610e34565b9150826002028217905092915050565b610e778261095c565b67ffffffffffffffff811115610e9057610e8f61066f565b5b610e9a8254610c87565b610ea5828285610de1565b600060209050601f831160018114610ed85760008415610ec6578287015190505b610ed08582610e52565b865550610f38565b601f198416610ee686610cb8565b60005b82811015610f0e57848901518255600182019150602085019450602081019050610ee9565b86831015610f2b5784890151610f27601f891682610e34565b8355505b6001600288020188555050505b50505050505056fea2646970667358221220d6b9db644a452b0ec9f3a275bdcad9adafc37a86fdeeb5a3cb4491921e7e481664736f6c63430008110033",
  "immutableReferences": {},
  "source": "// SPDX-License-Identifier: MIT\r\n\r\npragma solidity ^0.8.16;\r\n\r\ncontract CryptoMarket{\r\n\r\n    struct ContractProperties{\r\n        address CryptoMarketOwner;\r\n        address[] registeredUserAdderss;\r\n        mapping (address => bytes[][]) itemAndOwner;\r\n    }\r\n\r\n    \r\n    \r\n    mapping (address => bool) hasRegistered;\r\n    \r\n    \r\n   \r\n    ContractProperties contractProperties;\r\n\r\n    function cryptomarket() public{\r\n         \r\n         contractProperties.CryptoMarketOwner = msg.sender;\r\n    }\r\n\r\n    function checkUserRegistration() public view returns(bool){\r\n        return hasRegistered[msg.sender];\r\n    }\r\n\r\n    function registerUser() public {\r\n        if (!hasRegistered[msg.sender]){\r\n            hasRegistered[msg.sender] = true;\r\n            contractProperties.registeredUserAdderss.push(msg.sender);\r\n        }\r\n    }\r\n\r\n    function buyitem(bytes[] memory item) public payable {\r\n        \r\n        \r\n\r\n           \r\n            contractProperties.itemAndOwner[msg.sender].push(item);\r\n            \r\n            \r\n      \r\n        \r\n        \r\n        \r\n        \r\n\r\n    }\r\n\r\n    function getUserItems() public view  returns(bytes[][] memory) {\r\n        \r\n       return  contractProperties.itemAndOwner[msg.sender];\r\n\r\n     }\r\n    \r\n\r\n    \r\n\r\n    function getContractProperties() public view returns(address, address[] memory){\r\n\r\n        return (contractProperties.CryptoMarketOwner, contractProperties.registeredUserAdderss);\r\n    }\r\n\r\n\r\n    \r\n}",
  "sourcePath": "D:\\CryptoMarket\\contracts\\CryptoMarket.sol",
  "compiler": {
    "name": "solc",
    "version": "0.8.17+commit.8df45f5f.Emscripten.clang"
  },
  "schemaVersion": "3.4.9",
  "updatedAt": "2022-09-19T21:37:30.170Z",
  "networkType": "ethereum",
  "devdoc": {
    "kind": "dev",
    "methods": {},
    "version": 1
  },
  "userdoc": {
    "kind": "user",
    "methods": {},
    "version": 1
  }
}